:1000000007308A00522F00008C20482A3118202106
:10001000E139EC30F434EC34F93772000C00D334AD
:10002000E3306B36E9353A102519AE1866104300F7
:10003000CE326D1DA01232173133A01225008C294B
:100040006537F3377210C830F430F33400003730BE
:1000500084008313000803193A280630F800F701DA
:10006000F70B3028F80B2F287B30F700F70B3628DA
:10007000800B2D2808003E183F280812402808163B
:10008000831608128312BE1847288812482888163B
:100090008316881283123E194F2808135028081718
:1000A000831608138312BE195728881358288817F7
:1000B0008316881300008312071520112008831669
:1000C00087000230F700F70B6328662800008312D0
:1000D0000711201120088316870083120800BF0132
:1000E0008316081600308312081A0130BF048316E5
:1000F000881600308312881A0130F7000310F70DBC
:100100007708BF048316081700308312081B0130DC
:10011000F700F70DF70DFC30F7057708BF048316DD
:10012000881700308312881B0130F700F70DF70D98
:10013000F70DF830F7057708BF043F08F80008000E
:1001400020112008831687008312201020088316B0
:1001500087008312A01020088316870083120710DF
:10016000201020088316870008168816081788179D
:1001700083128714A01020088316870000008312C2
:1001800007152011200883168700000083126F20B6
:100190007808BE0007112011200883168700000090
:1001A000831207152011200883168700D728D82826
:1001B000000083126F207808BD000711201120086D
:1001C00083168700081288120813881383123E0EC4
:1001D000F700F030F70577083D04F8007808BD0017
:1001E000BD1FF4288316B428BB08031DF928071087
:1001F000FA280714201020088316870000008312B5
:100200008710A010200883168700000083120711B2
:10021000201120088316870083123C0EBD000F308A
:10022000BD053D08BE003B203C080F39BD00BE00A7
:100230003B2008002830AA000C30AB000130AC0095
:100240000630AD00071120112008831687008312A5
:100250000710201020088316870083128710A01033
:100260002008831687000812881208138813831247
:10027000201120088316870083122010200883167F
:1002800087008312A0102008831687000F30831286
:10029000B70027200130A9002908033C031C582976
:1002A0000330BE003B200530B7002720A90A4C29A7
:1002B0000230BE003B200530B7002720A9012908E5
:1002C000033C031C6F292A3029078400831300088C
:1002D000AE00BB012E08BC00A020A90A5F298A112C
:1002E0000A12692F380B752978294030B90079290D
:1002F000B90101303702B90739088038BA00BB01AB
:100300003A08BC00A02008003608073A03199229D1
:100310000B3A03199729063A03199F29023A031940
:10032000A529AA290130B700B8007221AF29BB0165
:100330000130BC00A0200230B7002720AF290130D7
:10034000B7000230B8007221AF29BB011030BC00E9
:10035000A020AF290130BB003608BC00A020080057
:100360000B08A9008B13831603178C170C140000BD
:10037000000083120313A91B8B1703170C087F3986
:100380000319042A0313A90003170D080313AA0075
:1003900003170F080313AB002908B60084212A08AD
:1003A00003178D0003132B0803178F0003130B088B
:1003B000AC008B13831603178C170C14000000007D
:1003C00083120313AC1B8B1703170C0D0E0D7F3913
:1003D0000319042A0313A90003170D080313AA0025
:1003E00003170F080313AB002908B60084212A085D
:1003F00003178D0003132B0803178F008D0A0319B1
:100400008F0A0313B0290317031308000830F800FC
:10041000000086108316861000008312BC0D0610A3
:10042000031C152A83160614831203181A2A83162E
:1004300006108312831686148312861C1D2AF80B5D
:10044000082A00008610831686100000061400009B
:10045000000086148312861C2B2AF801000006185F
:1004600078148610831686108312061083160610E1
:1004700083120800831606140000861400008312FD
:10048000061083160610000083128610831686104D
:1004900070308312BC000622BE30BC0006228316D8
:1004A0000610000086148312861C542A0000582A65
:1004B000000083160614000014308312B7002720B2
:1004C0008A110A12782F8316061400008614000081
:1004D00083120610831606100000831286108316FE
:1004E000861070308312BC000622AC30BC0006229D
:1004F0003330BC000622BC01062283160610000021
:1005000086148312861C822A0000862A0000831625
:100510000614000050308312B70027208A110A12F7
:10052000802FB630F700FA01F901F8013E083F04C8
:1005300040044104031D9E2AF701AB2A0310F81B57
:10054000AA2ABE0DBF0DC00DC10DFA0DF90DF80D93
:10055000F70B9E2AF81308003E0803191C2BC6004F
:10056000420803191C2BC6070318BD2A7F30C60298
:10057000031C1C2B03191C2BC12A8130C60703182E
:100580001C2B4608F700F801F901FA013F08CA00E0
:10059000CA174008C9004108C8001830C600C70182
:1005A000481CEA2A4508FA07031CDC2AF90A031D3D
:1005B000DC2AF80A0319C7174408F907031CE32AC1
:1005C000F80A0319C7174308C000C0174008F80706
:1005D0000318C717C70DF80CF90CFA0CCA0CC90C94
:1005E000C80C0310C60BCF2A0130F70703181C2BC9
:1005F000F81B012BCA0DFA0DF90DF80DF7030319BD
:100600001C2BCA1F122BFA0A031D122BF90A031DF9
:10061000122BF80A031D122BF80CF90CFA0CF70A2E
:1006200003191C2B3F08C7004308C706C71F1A2B16
:10063000F817202BF813202BF701F801F901FA0124
:10064000080042080319E62BCE0046080319E62BE2
:10065000CE02031C302B7F30CE070318E62B362B3F
:100660008130CE02031CE62B0319E62B4E08F7005F
:10067000F801F901FA01CD014308CC00CC17440878
:10068000CB004508CA001930CE004908CA02031839
:10069000592B0130CB020318592BCC020318592BCC
:1006A000CD020318592BCD0ACC0ACB0A4908CA0738
:1006B0008B2B4808CB020318742B0130CC02031893
:1006C000742BCD020318742BCD0ACC0A4808CB0733
:1006D0004908CA07031C8B2BCB0A031D8B2BCC0AA2
:1006E000031D8B2BCD0A8B2B47088038CC020318B7
:1006F0008A2B0130CD0203188A2BCD0A4708803897
:10070000CC074808CB07031C682BCC0A031D682BB9
:10071000CD0A682B7A14CE0B8E2B992B0310CA0DA1
:10072000CB0DCC0DCD0D0310FA0DF90DF80DCF0D3D
:10073000452B4F1CA12B0310F80CF90CFA0CCF0C15
:10074000A42BF7030319E62BCF1BCD2B0310CA0DE7
:10075000CB0DCC0DCD0D4908CA020318B92B0130C1
:10076000CB020318B92BCC020318B92BCD02031C02
:10077000DC2B4808CB020318C42B0130CC02031831
:10078000C42BCD02031CDC2B47088038CC02031895
:10079000CD2B0130CD02031CDC2BFA0A031DDC2B10
:1007A000F90A031DDC2BF80A031DDC2BF70A0319D9
:1007B000E62BF80CF90CFA0C4308CE004708CE06DD
:1007C000CE1FE42BF817EA2BF813EA2BF701F801F8
:1007D000F901FA01080083160614000086140000CF
:1007E00083120610831606100000831286108316EB
:1007F000861071308312BC000622BB013B08053C09
:10080000031C462C2D303B07840083133B08043C1B
:1008100003180C2C00300D2C0130BE003E08F700F0
:100820000830C0007708C100831606140000861443
:100830008312861C192C06180314061C0310F80DCD
:1008400000008316861083128610C00B142C8316AA
:10085000061400008312061041080319322C831677
:10086000061083120000831686148312861C362C11
:10087000000086108316861000008312061083166F
:100880000610780880008312BB0AFE2B8316061020
:10089000000086148312861C4B2C00004F2C000095
:1008A00083160614000083122D088039803C031D36
:1008B0005C2C0030F800A92EBF01BE01BD012E083E
:1008C000BC003E08BF003D08BE002E08BD00BC01B4
:1008D000BD0DBE0DBF0DBD0DBE0DBF0DBD0DBE0DC1
:1008E000BF0DBD0DBE0DBF0DF030BD05C401C30170
:1008F000C2012F0DF700420DF800430DF900440D21
:10090000FA00F70DF80DF90DFA0DF70DF80DF90DC8
:10091000FA0DF70DF80DF90DFA0DF030F70577081F
:10092000BC047808BD047908BE047A08BF04300E00
:10093000F7000F30F70577083C04B7003D08B80012
:100940003E08B9003F08BA0030080F39BF01BE01A8
:10095000BD01BC003D08BF003C08BE00BC01BD019C
:10096000C401C301C201F7017708BC043108BD040A
:100970004208BE044308BF043C083204B3003D08EB
:10098000B4003E08B5003F08B6002C08FA002B085A
:10099000840083132C1883173A08C1003908C0005B
:1009A0003808BF003708BE0091227A08C1007908D4
:1009B000C0007808BF007708BE00C501C4014830F8
:1009C000C3008530C200AC227A08C1007908C0009B
:1009D0007808BF007708BE007A08C5007908C4000F
:1009E0007808C3007708C200C901C801C701933065
:1009F000C600212377088000840A78088000840AD2
:100A000079088000840A7A0880002A08FA002908F8
:100A1000840083137A1883173608C1003508C00094
:100A20003408BF003308BE0091227A08C10079085B
:100A3000C0007808BF007708BE00C501C401483077
:100A4000C3008630C200AC227A08C1007908C00019
:100A50007808BF007708BE004108C5004008C40000
:100A60003F08C3003E08C200C901C801C701933056
:100A7000C60021237A08C1007908C0007808BF00A9
:100A80007708BE00C3010408C2004310831B43144F
:100A900083144108C7004008C6003F08C5003E084F
:100AA000C400CB01CA014830C9008430C80080307E
:100AB0008318C906CE01CF014508CD004908CD06EF
:100AC00044080319472ECC00F70048080319502E9C
:100AD000CC020319EC2D031CAA2D4908D200D21711
:100AE0004A08D1004B08D000CF010310D20CD10C22
:100AF000D00CCF0CCC0B742DCD1F812D4E14642E39
:100B00004E104C104E16473084008313792E4E122F
:100B1000CD1B942D4C1C9F2DD20CD10CD00CCF0C86
:100B2000F70A03195F2E9F2DD21BA22D0310CF0DA4
:100B3000D00DD10DD20DF70303195F2E942D4E1752
:100B40000C2E4E134508CD00CD1FA82DD217582EC0
:100B5000D213582E4808CC00F7004408CC024508B0
:100B6000D200D2174608D1004708D000CF010310A9
:100B7000D20CD10CD00CCF0CCC0BB62DCD1FC32D6D
:100B8000CE14642ECE104C10CE164B30840083133E
:100B9000792ECE12CD1BD62D4C1CE12DD20CD10CB2
:100BA000D00CCF0CF70A03195F2EE12DD21BE42DD8
:100BB0000310CF0DD00DD10DD20DF70303195F2E09
:100BC000D62DCE170C2ECE134908CD00CD1FEA2D01
:100BD000D217582ED213582E4908D200D2174A08DD
:100BE000D1004B08D000CD1FF92DD2134E15642E25
:100BF0004E11CF014C10473084008313792ECD1B4A
:100C0000222E4508CD004C1C0C2ED20CD10CD00C41
:100C1000CF0CF70A03195F2ECF1F1D2ED00A031D1C
:100C20001D2ED10A031D1D2ED20A031D1D2ED20C0E
:100C3000D10CD00CF70A03195F2E4E1BA12DCE1B31
:100C4000E32D412E8030D206D21F2A2E642E490871
:100C5000CD00372E4508CD00D208031D372ED10810
:100C6000031D372ED008031D372EF701582ED21B37
:100C7000412E0310CF0DD00DD10DD20DF70B372E15
:100C80005F2ECD1F452ED217582ED213582E48084E
:100C9000F7004908D2004A08D1004B08D000582E6E
:100CA0004408F7004508D2004608D1004708D000A4
:100CB0005208F8005108F9005008FA00972EF70181
:100CC000F801F901FA01972ECF01D009D109D20913
:100CD000CF09CF0A031D722ED00A031D722ED10A2E
:100CE0000319D20A4E18802DCE18C22D4E19F82D98
:100CF000272E0008D007031C832ED10A031D832E44
:100D0000D20A03194C1484030008D107031C8B2E4C
:100D1000D20A03194C1484030008801F803AD207BA
:100D200003184C144E1A872DCE1AC92DFF2D4208D8
:100D3000840083134318831777088000840A780897
:100D40008000840A79088000840A7A0880000130D3
:100D5000F8008A110A12872F0B08AA008B1383163A
:100D600003178C170C140000000083120313AA1B36
:100D70008B170318E32E03170C087F390313AA00FF
:100D800003170D080313AB0003170F080313AC0080
:100D90002A08B60084212B0803178D0003132C08A2
:100DA00003178F0003130B08AD008B138316031773
:100DB0008C170C140000000083120313AD1B8B175B
:100DC000A90BE32E022F03170C0D0E0D7F39031311
:100DD000AA0003170D080313AB0003170F08031332
:100DE000AC002A08B60084212B0803178D000313DA
:100DF0002C0803178F008D0A03198F0A03100313A1
:100E0000A90BAC2E08008318082F3E3084008313F2
:100E1000F701F801F901FA01BE01BF01C001C101EA
:100E20003D083C043B043A040319462F2030C2001D
:100E30000310B60DB70DB80DB90DBE0DBF0DC00D29
:100E4000C10D3D084102031D2F2F3C084002031D28
:100E50002F2F3B083F02031D2F2F3A083E02031C91
:100E6000402F3A08BE023B08031C3B0FBF023C0860
:100E7000031C3C0FC0023D08031C3D0FC1020314BC
:100E8000F70DF80DF90DFA0DC20B182F3E08800072
:100E9000840A3F088000840A40088000840A4108D0
:100EA0008000080003081F398300FF30A00083166C
:100EB0001F149F141F159F1107309C00831383126A
:100EC000A401A301A201A101A801A701A601A501F6
:100ED0001A29043003178D0000308F000313B0214E
:100EE0000430A900FA30B7002720A90B722F3A2A44
:100EF0000E3003178D0000308F000313B021632ADA
:100F0000AA012130A900AC012530AB00EB2BF80879
:100F10000319D22F0130B700B80072210F30031728
:100F20008D0000308F0003100A300313A900AC2697
:100F3000013084002408AC002308AB002208AA007A
:100F40002108A9000130AD008A1500208A11203047
:100F5000B60084214330B60084210130B70002304E
:100F6000B8007221183003178D0000308F00031075
:100F700005300313A900AC26013084002808AC001A
:100F80002708AB002608AA002508A9000130AD00FB
:100F90008A1500208A112030B60084212530B60041
:100FA0008421D92F1F3003178D0000308F000313C9
:100FB000B0210830A900FA30B7002720A90BDB2F99
:040FC0007F2F63001C
:101000000408AE002D08B000031921282C08C100E7
:101010002B08C0002A08BF002908BE00C501C40172
:101020002030C3008230C2008A11AC228A157A08AF
:10103000AC007908AB007808AA007708A900B00BCB
:1010400006282C08B9002B08B8002A08B700290880
:10105000B6003608B63CB600FA013708BA00B71732
:101060000310B70CB80CB90CFA0CF90CF80CF70C0F
:10107000B60B3028BA1F4728F709F809F909FA0909
:10108000F70A0319F80A0319F90A0319FA0A7A0880
:10109000AC007908AB007808AA007708A900AC1F5B
:1010A0005E28AE03AE16A909AA09AB09AC09A90AC4
:1010B0000319AA0A0319AB0A0319AC0A3B30B5009D
:1010C0009A30B400CA30B300B2010A30B0002D0823
:1010D0000319AE0A83142930840083132C08B90045
:1010E0002B08B8002A08B7002908B6003508BD004B
:1010F0003408BC003308BB003208BA008A11032749
:101100008A157808F708031D98282D0A300203195C
:1011100098282E0803199A280F39300203199228AB
:101120000318D228AE1BD2282E1B9A282030CC2898
:101130002030AE05AE1EAA28AE122D08031DAE0348
:101140007708AE002D30B6008A1184218A152E084A
:10115000F700AE012D083002031DBA287708AE0053
:101160002E30B6008A1184218A152E08F70020300F
:10117000AE0500303030AE1ECC28AE122D08031D57
:10118000AE037708AE002D30B6008A1184218A158F
:101190002E08F700AE013030F7077708B6008A1145
:1011A00084218A1583103508B9003408B800330843
:1011B000B7003208B600BD01BC01BB010A30BA005D
:1011C0008A1103278A157A08B5007908B4007808CF
:0C11D000B3007708B200B00B6A280800DA
:02400E007A3FF7
:00000001FF
;PIC16F877A
;CRC=98B8  CREATED="31-May-25 11:53"
